:020000040800F2
:1000000000000220C9450508C99B00087134020898
:10001000794605087946050879460508000000007C
:100020000000000000000000000000006DB40008A7
:100030006FB400080000000071B40008E521010859
:100040007946050879460508794605087946050880
:100050007946050879460508990201089D020108BC
:1000600079460508A1020108A502010839A4000883
:100070004DA4000861A4000875A4000889A4000824
:100080009DA40008B1A400087946050800000000FE
:10009000000000000000000000000000A9020108AC
:1000A00071A3000899A30008C1A300085BA300087E
:1000B000E9A30008FDA3000811A40008794605087B
:1000C0007946050879460508794605087946050800
:1000D000794605080D9D0008199D000800000000E4
:1000E000AD0201087946050873B40008000000005D
:1000F000000000000000000000000000C5A400088F
:10010000000000007946050825A400087946050886
:1001100000000000000000000000000000000000DF
:10012000D9A40008EDA4000801A5000815A5000841
:1001300029A50008000000000000000000000000E9
:10014000000000000000000000000000C5B400082E
:100150003DA5000851A5000865A5000879460508D9
:1001600079460508794605080000000000000000F7
:10017000000000000000000000000000000000007F
:1001800000000000794605080000000000000000A3
:080190007946050879460508CF
:1001980081C90181008408B10000000080C9018183
:1001A800008408B10000000080C90181B0AB08B12B
:1001B80000000000C9060181B0B0AF850000000052
:0C01C8003F1A0181B0AF81C900000000A7
:1001D400D049050000840280384A0500010000006F
:1001E400A04B0500008402800C4C050001000000B7
:1001F4000C4C0500A0FFFF7F444D0500A4FFFF7FCA
:100204008C4D0500A8FFFF7F2C4F0500B0B0AE80D9
:10021400D0500500B0A8018018520500AE80C980F6
:1002240004580500B0AA0580605A050001000000CA
:10023400645A050084FFFF7F9065050001000000FB
:100244002468050080FFFF7F906E05000100000018
:100254001C6F0500AF08B180547205000100000056
:1002640060720500A908B1800C740500010000004B
:10027400B07E0500B0A90280447F0500B0B0A8801C
:10028400947F0500010000009C7F0500B0B0AA80A7
:10029400D07F0500AE71B28094800500AB3F3880FA
:1002A400F480050001000000FC800500B0B0AA80C5
:1002B4003881050001000000D8810500AA0DB28034
:1002C40054820500B0AF0880F484050001000000EA
:1002D40004850500AD3F0280808705000100000011
:1002E400B0870500B0AD0480548A05000100000009
:1002F4001833012001020000010068003833012096
:10030400020B000001012C0058330120010C0000F5
:100314000000770078330120010D00000000760012
:10032400983301200115000000001E00B83301209D
:10033400011B000000000D00D8330120011600004D
:1003440000000C00F83301200117000000000C002D
:1003540018340120011D000000001E003834012063
:10036400022A010000013E0058340120023100003D
:1003740000011400783401200133000000003C0027
:0C03840098340120013600000000200029
:10800000D0E907239A422FBFD01AC0688018C01A3F
:108010007047D0E9092300699A4238BF1218D31A71
:108020000138C01A7047D0E90902131A5842584162
:108030007047036A41690246C85CD16801338B42CC
:1080400028BF002313627047436A8269D154436A90
:1080500002690133934228BF0023426B4362D36815
:1080600043F08003D3607047436B188810F0100012
:108070001EBF1A889B8801207047436B99891A8814
:10808000890610B592B2044607D5900605D5E26A76
:1080900022B39888216B80B29047636B99891A88C4
:1080A000090692B20FD510060DD5D4E909128A42FD
:1080B00022D0A169895C998021690132B2FBF1F07B
:1080C00001FB1022A262998A1A88C90592B204D5CE
:1080D000D20744BF4FF6F7721A8010BD9B88E26941
:1080E0006169DBB28B54E369E2680133B3FBF2F1FF
:1080F00002FB1133E361D0E7DA6822F08002DA6034
:10810000E1E7036941681F2B30B54FF0200285BFBE
:10811000A3F120054C680C68AA4098BF9A402242FF
:108120001ED0826900201074D0688468206820F016
:10813000010020605468206865790A4C828934F80F
:10814000154092B21F2B22EA0402828188BF203B95
:108150004FF020028BBF9A4002FA03F3CA608B6093
:1081600030BD00BFF49005080E4BDA68D20310D47E
:10817000DA68D1060FD4DA68D2050ED4DA6812F0C4
:10818000E00F0CD1DB6813F0020F14BF08200920A8
:108190007047012070470620704702207047072073
:1081A000704700BF003C024007B509238DF8073037
:1081B000FFF7DAFF8DF807009DF80730012BF7D0A5
:1081C0009DF8070003B05DF804FB838A028B9BB225
:1081D00043EA024331EA03030CBF01200020704749
:1081E00082B0002301930093012300900193019B2F
:1081F00063B1009A21F07F4314320092009A126812
:108200001A4214BF0120002002B07047009A1832B1
:10821000F3E77047704701207047044BD3E9000330
:10822000984288BF03F50063181A7047A016002013
:10823000054AD2E900318B42FDD0D1180133C3F396
:108240000A03087A13607047A0160020044BD3F885
:10825000080820B1D3F80808431F58425841704716
:10826000A0160020012380F84930704710B5D0F8DF
:10827000E83504461B699847032384F8123100202F
:1082800010BD08B590F8123180F81331042380F83E
:108290001231D0F8E835DB689847002008BD08B5F2
:1082A000D0F8E435DB6903B19847002008BD08B574
:1082B000D0F8E4351B6A9847002008BD08B5D0F80F
:1082C000E4355B6A9847002008BD30B501380024CA
:1082D00023460134055D002DFAD1DBB201335B008A
:1082E00013800B7003234B70022310F8014F04B965
:1082F00030BD5A1CD2B2CC5402338D54DBB2F4E7F9
:1083000010B5074C2068FF2808D00649D1F80C2882
:1083100001F5016100F070F8FF232360002010BD1B
:1083200000000020A0160020432301480B80704766
:1083300004000020122301480B80704747000020F2
:10834000042301480B8070475900002008B50A46F5
:1083500002490348FFF7B9FF084608BDB81E0020D0
:10836000A42D060808B50A4602490348FFF7ADFFE9
:10837000084608BDB81E0020B02D060808B50A46FC
:1083800002490348FFF7A1FF084608BDB81E0020B8
:10839000B52D060808B50A4602490348FFF795FFC0
:1083A000084608BDB81E0020BF2D060808B50A46BD
:1083B00002490348FFF789FF084608BDB81E0020A0
:1083C000CA2D06087047704770477047704770475E
:1083D000044B00200522C3F80828C3F81809C3F885
:1083E0001C097047A0160020024B0020C3F80808A3
:1083F000704700BFA0160020212838B50C461BD0BE
:1084000022282BD0202815D1A1B1072A12D11A4D2C
:10841000D5F81C3913B10968002098472368C5F8BE
:108420002039237985F82439637985F82539A379AA
:1084300085F82639002038BD0029FBD0072AF9D15C
:108440000D4BD3F820290A6093F824290A7193F878
:1084500025294A7193F826398B71EBE70029E9D079
:10846000022AE7D1044BD3F81839002BE2D009884F
:1084700000209847DEE700BFA0160020074AD2F888
:108480002839D2F82C29934203F1FF338CBF002006
:1084900001209B1A03EBC020704700BFA0160020EC
:1084A000ECE730B50F4CD4E900239A4286BF03F5C0
:1084B0000065AA1A9A1A0A44B2F5006F10D801444E
:1084C0000022814203D102B16360002030BDE21876
:1084D00010F8015B15720133C3F30A030122F0E7C0
:1084E0000220F3E7A0160020202301480B807047EC
:1084F0005D000020122301480B8070477D000020A2
:10850000042301480B8070478F0000200A4608B5FD
:10851000044920B90448FFF7D8FE024808BD0348C3
:10852000F9E700BFD01F0020D82D0608F02D06085F
:1085300008B50A4602490348FFF7C7FE084608BDCA
:10854000D01F0020082E060808B50A460249034835
:10855000FFF7BBFE084608BDD01F00201B2E0608F3
:1085600008B50A4602490348FFF7AFFE084608BDB2
:10857000D01F0020262E0608002370B54D1C1E4675
:10858000040FB0F1204F34BF3034373401F81340BA
:1085900005F813600133DCB2A2424FEA0010EFD8B5
:1085A00070BD1A2310B50B80094BD3F8E807D3F838
:1085B000EC2780180AD0D3F8EA4706490822FFF7CB
:1085C000DBFF042210312046FFF7D6FF024810BD22
:1085D00000F0FF1F95000020930000204FF400736F
:1085E0001360034BD3F8383A0B600020704700BF8C
:1085F000A01600200020704701207047012070471E
:108600000020704730B414461A69A24209D30D19EC
:10861000AA429B6938BF111B0A46E11830BC4FF0D3
:108620005FBA30BC704770477047D0ED007AD0ED2C
:10863000036A30EE677AE6EE877AB0EE670AC0ED3D
:10864000007A7047D0ED017AF5EE407AF1EE10FA3B
:1086500009D1DFED0F7A60EEA70AB7EE007AC7EE18
:10866000207AC0ED017AD0ED017A80ED021A71EE28
:10867000277AC1EE276AD0ED007AC0ED036A30EEAA
:10868000677AE6EE877AB0EE670AC0ED007A704747
:10869000DB0FC940D0ED017AD0ED036A30EE670AF6
:1086A000E6EE807A90ED000AC0ED017AB0EE677ACE
:1086B000D0ED027A37EE677AE6EE877AC0ED027A7D
:1086C00077EEC07AA6EEA70A80ED000A704790ED1B
:1086D000056AD0ED017AD0ED006AD0ED025A90ED36
:1086E000045A66EE277AB0EE407AE6EE807AD0ED54
:1086F000066A80ED057AE5EEA67AD0ED076AD0ED40
:10870000035A80ED066AE5EEE67AD0ED085AC0ED30
:10871000086AE5EE657AB0EE670AC0ED077A704741
:10872000D0ED006AD0ED057AE6EE807AB0EE407AC0
:10873000B0EE670AD0ED037AD0ED016A67EEC07A39
:10874000E6EE877AD0ED066A76EEA77AD0ED026A79
:10875000C0ED057AD0ED047A67EEC07AE6EE877A4E
:10876000C0ED067A704703685A1C026019707047A2
:1087700003690133012B036106D1002380ED010A57
:1087800080ED000A8360704790ED006A07EE903A32
:1087900070EE466AF8EEE77A86EEA77A77EE067A0A
:1087A00090ED027AC0ED017A30EE670AC0ED007AF2
:1087B000A6EE807A80ED037A80ED027A7047036836
:1087C0005A1C026019707047007970470079C0F335
:1087D0004010704700794009704790F830200346F8
:1087E00002F0FF0012B1002283F8302070474FF4EE
:1087F000006383817047064A002352F8041B8142BC
:1088000004D00133042BF8D10020704701207047B9
:10881000082100203548F0B5B0F8863AB0F8785A0B
:10882000B0F9904AB0F97E6AB0F98ACAB0F9987A7C
:10883000ED1AB0F8843A6B43B0F98E5A04EBE33486
:10884000ED0295FBF4F505EBE335A5F57A6E0EFB2D
:108850000EF42313B0F9804AC0F8945A0EFB06F6C2
:108860000EFB04FEB0F9884A5C4303FB0CFCF612D5
:10887000241406EBEC2C04EB6E34B0F97C6AB0F8EF
:10888000823A02340CEB860CA410D0F89C6A04F5F2
:1088900000440CFA07FC63430CF1020C4CF250301C
:1088A000DC0BA6EBAC0640FA07F3734355BF5B0045
:1088B000B3FBF4F3B3FBF4F35B0071B1181240F6B1
:1088C000DE34404360430A4C00145C4300EB244018
:1088D00000F6CF6003EB20130B6022B10A235D4347
:1088E00008352D1115600120F0BD00BFA016002035
:1088F00043E3FFFF01207047012070472DE9F84353
:10890000604F1546D7F8A04AB7F8A42AB7F8AA9A34
:10891000C2EB24135200C2EBE402B7F9A64A624349
:1089200003FB03F4B7F9A83A24135C43A41304EB44
:10893000E224B7F9AE3AC7F8BC4A0E46A4F5FA31BC
:1089400081FB01CE4FEAE37803FB0EF20CFB082219
:10895000A3FB0C389044B7F9AC2A82FB01021B0A36
:10896000120343EA086342EA105200031B1842EB69
:10897000282202F50042A3FB093809FB02884FEACE
:10898000E8734FEA680253EA68084FF000006DD0C0
:10899000B7F9B49A4FEAE97809FB0EFE0CFB08EE32
:1089A000A9FB0C9CE644B7F9B2CA8CFB01814FEAE3
:1089B000414C4FEA484111EB0909D7F8C01A4CEA7B
:1089C000D83C4EEB0C0CC1F5801E0EF00048B7F9F8
:1089D000B01A48EA5E0810EB09004FEACE7EBEEB03
:1089E00000000CEBC10168EB010C40F63548A0FB20
:1089F000080108FB0C114BF07DFDB7F9BA3A4FEABC
:108A0000613E4FEA503C4CEAC14C03FB0EF24FEA88
:108A1000E3790CFB0929A3FB0C324A4403FB0EFE4D
:108A20000CFB02EEA3FB0C3CB7F9B82AE6445B0E44
:108A300043EACE1313EB000C804602FB01F34FEA2E
:108A4000E27941EB6E6EA2FB082809FB003141443C
:108A5000D00C40EA41301CEB0000B7F9B63A4EEBBF
:108A6000E141000A40EA016000EB03100EB1000A88
:108A7000306025B104EB8404803424122C60012082
:108A8000BDE8F883A016002001207047B0F900006F
:108A9000084B4143994208DBB1F5000F07DA002982
:108AA000B8BFFF31081200B270470348FBE747F632
:108AB000FF70F8E701FF7FFF0080FFFF054B0022FA
:108AC000C3F8C42AC3F8C82AC3F8CC2AC3F8D02AEA
:108AD00001207047A01600200A4BD3F8D42AD3F8FF
:108AE000D01A521AFA2A9FBFD3F8C42AC286D3F8E2
:108AF000C82AD3F8CC3A9DBF0287438701200020C3
:108B0000704700BFA01600202DE9F04147690646D6
:108B10008846002F59D10368C3F30D0515B3D8F863
:108B200000803568FFF740FB092840F08780454CFE
:108B3000236923F440732361236943F400732361A1
:108B4000236943F001032361C5F80080FFF72CFB84
:108B50002369092823F0010323616FD133680433AB
:108B6000336032E0384A934229D302F5804293427F
:108B700024D302F5804293422AD3344A934229D91E
:108B800002F58032934227D902F50032934225D96B
:108B900002F50032934223D902F50032934221D9E3
:108BA00002F5003293421FD902F5802293421DD96B
:108BB000B3F1016F1CD3052009F09EFC0825FFF7D7
:108BC000F3FA092816D04FF0FF373846BDE8F08198
:108BD0001025F4E71825F2E72025F0E72825EEE731
:108BE0003025ECE73825EAE74025E8E74825E6E7C1
:108BF0005825E4E7134C236923F440732361236968
:108C000043F400732361236923F0F803236123698C
:108C10001D4345F002052561236943F48033236138
:108C2000FFF7C2FA236923F00203236123690928AD
:108C300023F0F80323613FF472AFC4E76FF001073C
:108C4000C3E700BF003C024000400008FFFF0008EF
:108C500003682DE9F04104464068134483421AD862
:108C60000D468E1804F10C074FF00008B54202D1F2
:108C70006069BDE8F08123695A1C2261234415F81C
:108C8000011B1973042AF1D139462046FFF73CFF36
:108C9000C4E90480EAE74FF0FF30EAE710B5074C7B
:108CA00094F8D90A40B109F0F9FAD4F8E03AC01AB8
:108CB000C0F5FA5020EAE07010BD00BFA0160020F9
:108CC0002DE9F347038A8689B6B205460C461E4055
:108CD0004FF0004901F14C0701F1340816B902B018
:108CE000BDE8F087B6FA86F329FA03F2D24391B2CF
:108CF000298216401B3B002C40D0042BEED8DFE825
:108D000003F039342E280300E368D5F82CA02BB1EA
:108D10009B681BB11FFA8AF1201D9847636A33B123
:108D20009B6823B11FFA8AF104F11C009847E36B9A
:108D30002BB19B681BB11FFA8AF140469847636DBF
:108D4000002BCBD09B68002BC8D01FFA8AF1384685
:108D500003E0E368696B5B68201D9847BEE7636AC0
:108D6000A96B5B6804F11C00F7E7E36BE96B5B68D8
:108D70004046F2E7636D296C5B68E8E7042B06D890
:108D8000DFE803F00D0B09070300EB6A0193019B79
:108D9000A4E76B6BFAE7AB6BF8E7EB6BF6E72B6CD2
:108DA000F4E790F84820531C0244DBB280F84830C6
:108DB00082F8341090F849200AB1132B01D94AF0F7
:108DC00063BA7047002280F849204AF05DBA70B556
:108DD0000F4E96F8E83A002BFBD104464518AC42FA
:108DE00001D1002070BDD6F82C3914F8011BF218FF
:108DF0000133C3F30A0382F8E91AC6F82C39FFF7E6
:108E00003DFB0028EBD1012009F087FAF7E700BF0E
:108E1000A016002038B50C461146FFF717FA48B1E6
:108E2000054D002AD5F8D43A04DD2046FFF7CFFFE0
:108E3000D5F8D43A38BD00BFA0160020F0B590F8A0
:108E4000CF5590F8CE1590F8D12590F8D03590F800
:108E5000CC7590F8CDC501EB05218DB203EB022353
:108E600090F8D31590F8D22585B002EB012207F0D7
:108E70001F06012192B29BB28E4204468DF8087003
:108E80008DF809C0ADF80A50ADF80C30ADF80E20E1
:108E9000C0F8402180F8111100F00C81022E00F082
:108EA0001D81002E40F09B81BCF1090F5ED8DFE8E8
:108EB0001CF0B600F4005D00C8005D0057000A0019
:108EC0005D00A90076002E0A022EADF806200BD018
:108ED000032E25D0012E49D1D0F8EC351B68A0789F
:108EE0000DF10601984709E0D0F8E43580789B6AD7
:108EF0000DF1060198474670C4F8F005BDF806204C
:108F0000002A47D0BDF80E30002B43D09A4228BF2C
:108F10001A46ADF806200146204649F0D1FC39E05A
:108F2000E9B2052922D8DFE801F003070B0F131778
:108F3000D0F8EC355B68D2E7D0F8EC359B68CEE72B
:108F4000D0F8EC35DB68CAE7D0F8EC351B69C6E72A
:108F5000D0F8EC355B69C2E7D0F8EC359B69BEE729
:108F60001A4303D190F81231032B03D1204649F064
:108F7000D3FB0FE0016905F07F0680F814610B68F0
:108F800065F30A121A430A6049F0AEFC2EB10223BF
:108F900084F81231002005B0F0BD0123F8E7E9B2F2
:108FA000904D012985F8F111E0D890F81231022B8B
:108FB0000FD0032BDAD1C1B9022380F81231D0F8D7
:108FC000E43580F810115B689847204649F08CFC26
:108FD000E0E70029F9D00121032380F8101180F87F
:108FE0001231204649F05AFBEFE790F810110129A1
:108FF000EBD0D0F8E4355B68984795F8F11184F828
:109000001011EEE7012AB1D190F81231022B04D0F1
:10901000032BABD100F588717EE773497CE790F8AC
:109020001231023B012BA1D86E4B0022C3F8F8216C
:10903000D0F8182112B10222C3F8F8216B4902229C
:109040006AE7012D08D1C0F81851D4F8E43502A917
:109050009B6820469847B8E7022D9BD1DAB2002AD8
:1090600098D102691B0A023B5268032B03D8DFE840
:1090700003F00C0E1012012363F30612594BC3F8D0
:10908000FC21012384F816319FE70223F4E7032330
:10909000F2E70423F0E70523EEE790F81231023BF4
:1090A000012B3FF663AF012D7FF474AF0023C0F8AE
:1090B0001831CAE790F81221032A7FF457AFDBB2C8
:1090C000012B3FF653AFD0F8E43502A99B689847CF
:1090D000BDF80E30002B7FF45DAF76E707F0600738
:1090E000202FD9B205D1D0F8E43502A99B68984762
:1090F00050E7BCF1010F31D0BCF1030F1ED0BCF121
:10910000000F7FF447AF90F81221022A5AD0032AA9
:109110007FF42CAF13F0800F4FF02802314B59D061
:1091200001F07F0102FB010191F81E21002A4FD0BE
:109130000122C3F800222E490222EDE690F81231F6
:10914000022B3FD0032B7FF411AF002D7FF47DAFB6
:109150004A063FF47AAF49F0ADFA76E790F812216B
:10916000022A2FD0032A7FF401AF002D7FF412AF23
:1091700011F07F003FF429AF5BB2002B4FF02802C3
:10918000B5BF02FB004102FB014101F58E7101F503
:109190005D710022DB0F08708A704B7004EB800059
:1091A000C9786BB18269136802396FF3555301298D
:1091B0008CBFC3F30071012161F31C73136044E79A
:1091C000426DF0E74B063FF4E5AE49F073FAE1E695
:1091D0000022AEE702FB010191F87623A6E707F033
:1091E0008001F2E7982700208C2900209029002098
:1091F0009829002010B5044671BB90F81131032B5B
:109200001BD1D0F89023D0F87C339A4217D9C1787B
:10921000012908BFD0F88013A2EB030204BFC918CC
:10922000C0F88013934228BF1346C0F890239BB226
:10923000D0F88023002149F007FC002010BDD0F8B1
:10924000E4351B6923B190F81221032A00D1984715
:10925000204649F049FBF0E7D0F8E4359B69002B44
:10926000EBD090F81221032AE7D19847E5E770B5D3
:109270000A7812F0600406460D462AD0202C2FD121
:10928000CC884B78FCB112060CD51F4922461846F3
:10929000FFF7B2F8EA881C49304649F011FB002478
:1092A000204670BD194A1360194A0323C2F80C48BE
:1092B00080F81131C0E9E444234602F5016200213F
:1092C00049F0C2FBEBE7022211441846FFF794F87D
:1092D000E6E74B780A2B08D00B2B0BD0062BDFD1FF
:1092E000304649F019FA0224DAE70A49012249F026
:1092F000E7FAD5E78B781BB9074BC3F80442CFE7F1
:1093000049F00AFACCE700BFB01E002000000020A0
:10931000A01600209C2900209827002010B52823A3
:1093200003FB0101074AB1F88C1304461046FFF70E
:10933000B8F82046034A4023012149F085FB00206C
:1093400010BD00BFA029002070B50F4DD5F85032D8
:10935000044643B195F8542295F86832134302D17C
:10936000012149F0A7F98121204649F0A3F995F898
:109370006832022B07D12046044ABDE870401F2303
:10938000012149F061BB70BD98270020E029002031
:10939000002310B519460446402249F0F4F9402252
:1093A00080212046002349F0EEF9012384F8123190
:1093B000D4F8E835A0785B689847002010BD38B530
:1093C000402204460223812149F0DDF92046022390
:1093D0004022012149F0D7F92046032308228221A7
:1093E00049F0D1F9084B0222002583F84B2083F87D
:1093F0004C50FEF7EDFF01212046044A402349F07E
:1094000023FB284638BD00BF00000020A029002013
:1094100010B58121044649F08DF92046012149F01B
:1094200089F92046822149F085F9FEF7DDFF002009
:1094300010BD10B58121044649F07CF92046012178
:1094400049F078F9024B002083F8690210BD00BF93
:109450009827002038B5264C94F8E82A012A0346BC
:1094600033D12448D0F86C221AB984F8E82A0020B5
:1094700038BD402AD4F8281919D9403A01F14005DD
:10948000C0F86C22C4F8285940221B4810FA81F118
:10949000C3E9541140F201100021C3E95621A3F899
:1094A000440103F5A271184649F035FADFE702EBF3
:1094B0000105C4F828594FF00005C0F86C520ABFE6
:1094C000022092B284F8E80ADFE7022ACFD1002511
:1094D00040F20112C0E95455C0E95655A0F84421A4
:1094E00000F5A27149F017FA84F8E85ABFE700BF07
:1094F000A0160020982700208921002038B52A4C8A
:10950000D4F870320F2B03F1010203D0C4F870229B
:10951000002038BD254A0023C4F8703292F8E83A9A
:10952000002BF5D1D2F82819B1F5006F08BFC2F8A9
:109530002839D2F82819D2F82C39994203D10023BE
:1095400082F8E83AE4E78CBFC1F500635B1A402B70
:109550001BD9403B01F14005C4F86C32012382F86D
:10956000E83AC2F828594023114A12FA81F140F230
:109570000112A0F844210022C0E95411C0E956327A
:1095800000F5A27149F0C7F9C2E701EB0305C2F883
:1095900028594FF00005C4F86C520EBF0224012474
:1095A0009BB282F8E84ADFE798270020A016002047
:1095B0008921002070B50446144EFFF73AFF20467B
:1095C00002234022812149F0DEF840220121204679
:1095D000022349F0D8F80025D6F8743286F869528B
:1095E0001B6886F8685228469847E06849F076FC80
:1095F000E068012149F088FC20461F2306F512721D
:10960000012149F021FA284670BD00BF98270020AB
:1096100008B5002047F038F9002008BD2DE9F843CF
:10962000089D0E46174600212022044698464EF01B
:1096300090FC4DB12B68E3811A0C6B682282E382A7
:109640001A0C6B892283638230464AF08BF8FB0642
:1096500004D400F1FF39B9F1FF3F41D10828024697
:109660004FF0FF39A8BF082200254FF020332360B8
:109670006360314620464EF033FA234A228104F1DA
:10968000080309F10101A27218462A4631444EF03E
:1096900027FA621E0346E01D12F8011FA1F16105C1
:1096A000192D9CBF203911708242F5D1184604F162
:1096B0000B0210F8013BA3F1610119299CBF203B6B
:1096C00000F8013C9042F4D1182323734FEA184369
:1096D000A382099BE772A4F81A80E361BDE8F883CE
:1096E00016F809302E2B02D009F1FF39B3E74A46AC
:1096F000A0EB0905082A05F1FF35A8BF0822032DB4
:10970000A8BF0325B1E700BF202020002DE9F04FBE
:10971000012085B00D461646994647F0B5F8B64F7C
:1097200004352C1FB9F1000F06D1484647F0ACF8BC
:10973000484605B0BDE8F08FD7F8502AB24200F293
:10974000B780D7F860AAA6EB02084FEAD803DAF888
:1097500030200233934208F0070803D3DAF83820A8
:10976000934218D951461846039346F00AFF039BCB
:10977000824670B9A5F1080305F5FC729F4943F8CC
:10978000041F9342FAD109F1FF39013605F500753E
:10979000C7E7C7F8600A9AF80420002A6DD04FF492
:1097A0000072002120464EF0D4FBDAF84030B8F1C8
:1097B000000F47D1CDE9008805F11C0B43BB4346A0
:1097C0002046D7F83C1A0822FFF728FF5C464FF4E2
:1097D000F073DAF8448004EB030AB8F1000FD2D03A
:1097E0005445D0D098F80420D8F80010D8F830307C
:1097F00004F1200B08F11C00B2B30022CDE90002F5
:1098000011222046FFF70AFF5C46D8F84880E4E7BB
:10981000DAF830307A4911222046FFF7FFFEDAF8F5
:1098200040301A6C05F13C04CDE9008842B943464A
:10983000744911225846FFF7F1FE4FF4E073C8E770
:109840001B6BF5E7002B0CBF01220222C2EB0812B2
:10985000DAF84480B8F1000F03D0013AD8F8488014
:10986000F8D14FF40073B6E798F805C0D8F8102087
:10987000CDE900024CF02102C3E7DAF828B0BBF1D1
:10988000000F06D14FF40072002120464EF061FB1C
:1098900079E7DAF830209B1ADAF80C2008EBC308D5
:1098A00002EB482253464FF400712046D8476AE73E
:1098B000002E64D14FF40072314620464EF049FB31
:1098C000802385F8BA310C2385F8BE31D7F8402AB9
:1098D0004D49D7F8383AC4F8C6218A42C4F8CA318B
:1098E00018DDFF2285F8BB2185F8BD2185F8BC2154
:1098F000454A013B934228DDFF2385F8BF3185F8B7
:10990000C13185F8C031552385F8FA31AA2385F88D
:10991000FB3138E73F2192FBF1F1C1EB811C43F6AB
:10992000C16492FBF4F4A2EB0C02A01020F03F0003
:109930000132024385F8BC21FF2291FBF2F211446F
:1099400085F8BD4185F8BB11D2E73F2293FBF2F2C7
:10995000C2EB821443F6C16093FBF0F01B1B811035
:1099600021F03F0101330B4385F8C031FF2392FB07
:10997000F3F31A4485F8C10185F8BF21C3E7D7F88E
:10998000443A9E4242D15223237063706123A370F4
:1099900084F8E731D7F8583AC4F8E8314FF00008B6
:1099A0004FF0FF3341227221E27084F8E41184F811
:1099B000E51184F8E62184F8EC3184F8ED3184F87F
:1099C000EE3184F8EF314FF4F072414628464EF004
:1099D000C0FA5523C5F8EC81C5F8F081C5F8F481CB
:1099E00084F8FE316FF0550384F8FC8184F8FD8122
:1099F00084F8FF31C7E600BFA0160020DEADBEEF41
:109A00006264060861640608FF03FB00D7F8403A69
:109A10009E426DD14FF40072002120464EF099FA1B
:109A2000EB2305F8043C3B4A582305F8033C9023FC
:109A300005F8023C136845F8013C5368C5F803304B
:109A4000022200234FF0080CF821E372227385F8FC
:109A500009C0A273E37369743F212A7321764FF022
:109A6000FF31A1763E21D7F8400A2177D7F8381A7E
:109A700084F82C20091A2162D7F8480AD7F84C1A22
:109A800063760122091AE3766377A377E37784F894
:109A90002D3084F82E3084F82F30616284F8302025
:109AA00084F83130802385F83C30292385F83E3016
:109AB000942385F83F300E2385F840300D2385F838
:109AC0004130154B85F842C01A68C5F843205A68E2
:109AD000C5F847201A89A5F84B20104A9B7A85F8CB
:109AE0004D301368C5F84E305368C5F852300AE758
:109AF000D7F8481AD7F84C3A8E4206D39E4207D27E
:109B0000711A204646F060FD3DE69E42FFF4BAAE73
:109B1000F11AF6E7342E06083D2E0608492E0608EF
:109B200013460A460146184632F014BF024BD3F8DA
:109B3000780208F0A5BA00BF9827002010B50D4B99
:109B40000D4CD3F8D43AD4F87C021B1AFA2B06D960
:109B5000042020F0ADF9002084F8800210BD11B17E
:109B6000D4F884320B6012B1D4F88832136001202B
:109B7000F4E700BFA0160020982700200E49D1F876
:109B8000883043F47003C1F888300C4B1A68002009
:109B900042F001021A6098601A6822F0847222F47E
:109BA00080321A60064A5A601A6822F480221A60CB
:109BB000D860044B8B60704700ED00E00038024035
:109BC000103000240000000870470028ACBF00F1EE
:109BD0006040074B4FEA0111ACBF00F5614000F057
:109BE0000F00C9B2B4BF195480F80013704700BF0A
:109BF00014ED00E02DE9F0479846414B914603EB08
:109C0000800205469468002C78D02833636004F104
:109C10003E03A36104F59F73E3614FF48073C4E9CD
:109C20000433236894F83D00E160A36306F026FC4A
:109C3000064694F8440294F83CA0271D08B146F06B
:109C40008DFE94F8450208B146F088FED4F8403203
:109C50001BB12C4A116B0B43136318F0080F2CD067
:109C60000135EDB21EB14FF4E163F380357218F0A7
:109C7000100F94F846221AD00221304606F0BEFB9F
:109C8000D4F8481294F94702FFF79FFF94F947323E
:109C900094F84722002B07DB02F01F0101228A40C3
:109CA0005B09194941F823203846BDE8F08718F0D0
:109CB000200F14BF12213221DFE719F0020F0CD060
:109CC0006B1CDBB21EB14FF4A162F280337294F8C8
:109CD00046220221304606F091FB19F0010FCFD049
:109CE000504606F0CBFB0135EDB218B14FF4C1631D
:109CF000C380057294F846220221BFE72746D3E7C6
:109D0000F49005080038024000E100E00148FEF749
:109D1000B4B900BFB40000200148FEF7AEB900BFDF
:109D200000030020024B586FC0F30070704700BF63
:109D3000003802407047064A002352F8331081422F
:109D400001D1D8B2704701330E2BF6D1FE207047F7
:109D50004C910508704770B5002828D04C684CB964
:109D6000426815685679AB8902229BB2B24023EA59
:109D70000203AB818A683AB943681D68AB8923F056
:109D800001031B041B0CAB81816044B14468216852
:109D900064798D890223A3402B439BB28B8132B11E
:109DA00043681A6893899BB243F00103938170BDA5
:109DB00038B503681B681C68254B03F5A96393ED50
:109DC000007A07EE902AB8EE477AF8EE677A013902
:109DD00087EE270A8DB2DFED1F7A30EE270A4AF0B0
:109DE0005FFF1D4A23880138944280B29BB212D093
:109DF00002F5806294420ED0B4F1804F0BD0A2F5F0
:109E00008032944207D002F58062944203D002F57A
:109E10008062944202D123F070039BB20F4A9442B5
:109E200006D002F5806294421CBF23F440739BB2BB
:109E30002380094BE5629C42208503D003F58063B3
:109E40009C4201D1002323860123A38238BD00BF99
:109E5000000000200AD7233C000001400010004011
:109E600010B50446FFF7A4FF23681B68587990B12A
:109E7000032140B2FFF7A9FE23681B685A7993F9C2
:109E80000530002B07DB02F01F0101228A405B092D
:109E9000104941F8232023681B68987990B1032169
:109EA00040B2FFF792FE23681B689A7993F9063057
:109EB000002B07DB02F01F0101228A405B090549E4
:109EC00041F8232063681A6813889BB243F00103AA
:109ED000138010BD00E100E070B546684C4C73790A
:109EE0002344002993F8C85014BF00200220012306
:109EF000CC3454F823108A4225D25A1E336892B2C9
:109F0000198C2DBB21F001010904090C1984198B4E
:109F10001C8C89B221F0F301A4B241EA021224F0B0
:109F20000A0192B2084342F0010240F001001A8394
:109F300018841A8B22F00C021204120C1A831A8B4A
:109F400092B21A8370BD0133102BD2D10F22D5E704
:109F5000042D1CD121F010010904090C19841C8B5B
:109F6000198C24F44074240589B2240D44EA023289
:109F700021F0A00192B241EA001042F4807240F058
:109F800010001A8318841A8B22F44062D4E7082D3B
:109F900021D121F480710904090C1984998B1C8C3E
:109FA00089B221F0F301A4B241EA021224F4206143
:109FB00092B241EA002042F0010240F480709A839C
:109FC00018849A8B22F00C021204120C9A839A8B3A
:109FD00092B29A83B6E721F480510904090C1984DE
:109FE000998B1C8C21F440710905090D41EA02325C
:109FF00045F6FF71214092B241EA003042F480728E
:10A0000040F480509A8318849A8B22F44062DBE7F4
:10A01000F49005082DE9F0434568A87910F0040391
:10A0200000F002020BD000201746804604240646AA
:10A030006B79032B49D8DFE803F0094A89C99046B8
:10A040004FF480701F461C460126F1E72D682B8CCB
:10A0500023F001031B041B0C2B84B5F820C0B5F8BA
:10A0600004902B8B23F073031B041B0C43F0600E36
:10A070002CF0020C6E4B4FEA0C4C4FEA1C4C48EA99
:10A0800006069D421FFA89F94CEA060C03D003F537
:10A0900080639D420AD14FF6F3730CEA03033B43FE
:10A0A00029F4407943EA040C40EA0909A5F8049030
:10A0B000A5F818E06963A5F820C02B8B23F00803EE
:10A0C0001B041B0C43F008032B83BDE8F0832D68B1
:10A0D0002B8C23F010031B041B0C2B842A8CB5F84B
:10A0E00004E0B5F818C0524B2CF4E64C22F02002E4
:10A0F0004FEA0C4C12044FEA1C4C120C48EA0606BC
:10A100009D421FFA8EFE4CF4C04C42EA061203D068
:10A1100003F580639D420BD122F0800242EA0712D0
:10A1200022F040022EF4406E42EA04124EEA800E03
:10A13000A5F804E0A5F818C0A9632A842B8B23F4A2
:10A1400000631B041B0C43F40063BDE72D682B8CDC
:10A1500023F480731B041B0C2B842A8CB5F804E0B9
:10A16000B5F81CC022F400732CF0730C304A4FEA8F
:10A170000C4C1B044FEA1C4C1B0C48EA060695428B
:10A180001FFA8EFE4CF0600C43EA062303D002F562
:10A19000806295420BD123F4006343EA072323F442
:10A1A00080632EF4405E43EA04234EEA001EA5F8C5
:10A1B00004E0A5F81CC0E9632B84AB8B23F00803F3
:10A1C0001B041B0C43F00803AB837EE72C68238C35
:10A1D00023F480531B041B0C2384258CA288A38B9F
:10A1E00025F400552D0448EA06062D0C23F4E64319
:10A1F00045EA06350E4E1B041B0CB44292B243F4E2
:10A20000C04303D006F58066B44203D122F48042F5
:10A2100042EA8012A280A38321642584A38B23F4C5
:10A2200000631B041B0C43F40063A3834DE700BFD2
:10A230000000014043685A79032A0FD8DFE802F092
:10A240000205080B186834307047186838307047BA
:10A2500018683C30704718684030704700207047DD
:10A2600010B543681A685879084B0344012093F8E5
:10A27000C840138CA0409BB223EA00031384138CC4
:10A28000A140194389B2118410BD00BFF4900508A4
:10A29000F0B5EFF31184102383F31288C568466884
:10A2A000AA68136823F00103136032687779104EAF
:10A2B000938936F817609BB223EA060393812A69D3
:10A2C0006D681F2A4FF0200385BF203A93409340CA
:10A2D000EB6098BFAB60E3B283F31188C3689B68FF
:10A2E00059601A6842F001021A6001230374F0BD3C
:10A2F000F49005080268137D012B04BF0223137537
:10A3000092F82C100CBF4FF400730023012904BFF6
:10A31000022182F82C1092F8441008BF43F48063A5
:10A32000012904BF022182F8441092F85C1008BF92
:10A3300043F4006301290DD1022182F85C1043F43B
:10A3400080534268116800224A628A8992B213439C
:10A350008B8101E0002BF4D17047034B0348D3F805
:10A360008C12FEF7ADBC00BF982700200000014012
:10A3700010B5064C0648D4F88C12FEF7A1FCD4F8B0
:10A38000AC120448BDE81040FEF79ABC98270020A4
:10A39000000001400040014010B5064C0648D4F8CA
:10A3A0008C12FEF78DFCD4F8B0120448BDE81040C2
:10A3B000FEF786BC982700200000014000440140C1
:10A3C00010B5064C0648D4F88C12FEF779FCD4F888
:10A3D000B4120448BDE81040FEF772BC9827002074
:10A3E0000000014000480140034B4FF08040D3F88B
:10A3F0009012FEF765BC00BF98270020024B03486F
:10A40000D3F89412FEF75CBC9827002000040040AB
:10A41000024B0348D3F89812FEF752BC982700204D
:10A4200000080040024B0348D3F89C12FEF748BCDA
:10A4300098270020000C00400348D0F8583513B18D
:10A4400000F24C5018477047000000200348D0F835
:10A45000783513B100F26C501847704700000020A7
:10A460000348D0F8983513B100F28C501847704764
:10A47000000000200348D0F8B83513B100F2AC500A
:10A4800018477047000000200348D0F8D83513B1B2
:10A4900000F2CC5018477047000000200348D0F865
:10A4A000F83513B100F2EC50184770470000002057
:10A4B0000348D0F8183613B100F20C601847704703
:10A4C000000000200348D0F8383613B100F22C60A9
:10A4D00018477047000000200348D0F8583613B1E1
:10A4E00000F24C6018477047000000200348D0F885
:10A4F000783613B100F26C601847704700000020F6
:10A500000348D0F8983613B100F28C6018477047B2
:10A51000000000200348D0F8B83613B100F2AC6058
:10A5200018477047000000200348D0F8D83613B110
:10A5300000F2CC6018477047000000200348D0F8B4
:10A54000F83613B100F2EC601847704700000020A5
:10A550000348D0F8183713B100F20C701847704751
:10A56000000000200348D0F8383713B100F22C70F7
:10A570001847704700000020036823F001030360C0
:10A580000023036043608360C36003612123436150
:10A590002A4B984203D13D2243F8082C7047284BA0
:10A5A000984204D14FF4746243F8202C7047254B35
:10A5B000984204D14FF4741243F8382C7047224B60
:10A5C000984204D14FF0746243F8502C70471F4BEF
:10A5D000984203D11E4A43F8642C70471D4B9842A1
:10A5E00003D11D4A43F87C2C70471C4B984203D181
:10A5F0001B4A43F8942C70471A4B984204D14FF0F1
:10A600003D5243F8AC2C17E0174B9842C3D0174B80
:10A610009842C7D0164B9842CCD0164B9842D1D016
:10A62000154B9842D6D0154B9842DAD0144B98422D
:10A63000DED0144B9842E2D0704700BF1060024059
:10A640002860024040600240586002407060024052
:10A650003D00002088600240400F0020A0600240C2
:10A6600000003D20B86002401064024028640240AF
:10A6700040640240586402407064024088640240B2
:10A68000A0640240B86402402DE9F0410022012696
:10A6900003250B6806FA02FC3CEA030331D1036888
:10A6A000540005FA04FE23EA0E0303600B79D0F888
:10A6B00000806FEA0E0703FA04FE013B4EEA080E23
:10A6C000012BC0F800E011D883681F4087604B79E8
:10A6D0008768A3403B438360436823EA0C034360DD
:10A6E0008B79476893409BB23B434360C36805FA4C
:10A6F00004F723EA0703C360CB79C768A3403B4351
:10A70000C3600132102AC4D1BDE8F081204A9368A9
:10A7100003F00C03042B10B520D0082B20D01D4BC8
:10A720001B4C0360A3681C4AC3F30313134493F840
:10A730004C170368CB404360A168C1F382211144E8
:10A7400091F84C1723FA01F18160A168C1F34231FD
:10A750000A4492F84C27D340C36010BD0F4BDFE78B
:10A760005368516813F4800F01F03F01536814BF20
:10A770000A4A084AB2FBF1F1054A5268C2F30142A3
:10A78000C3F3881301324B435200B3FBF2F3C7E724
:10A79000003802400024F4000000002040787D01D1
:10A7A000F0B5446B8668A38923F400531B041B0C8B
:10A7B000A3818279278A0546BFB2100312F0040FE5
:10A7C0004FEA022100F400506A7927F4405740EA2A
:10A7D0000700208214BF4FF4805C4FF0000C12F091
:10A7E000010F0CBF002304239207A28922F4B05268
:10A7F00001F4806122F00C0248BF43F0080341EAF3
:10A800000C0112040B43120C1A43A281A38A23F4F5
:10A8100040731B041B0C85B0A3826846FFF776FFCC
:10A82000214B9C4203D003F580639C423AD1039BA9
:10A83000A2891921170401FB03F34FF064014CBFF7
:10A840007600B600B3FBF6F3B3FBF1F001FB103377
:10A850000201A08900044BBFDB001B0132333233FD
:10A860004BBFB3FBF1F3B3FBF1F303F0070303F0CA
:10A870000F0313439BB223816A6BAB7913F0080F6C
:10A88000938A0BBF23F008039BB21B0443F0080319
:10A8900008BF1B0C938293899BB243F400539381AE
:10A8A00005B0F0BD029BC3E7001001402DE9F8435D
:10A8B0001E46204B9DF820509DF8247098428946F2
:10A8C00090462CD13B462A4631460020FFF792F9AC
:10A8D00004460020C4E90700C4E90900C4E90B9854
:10A8E0006571A660A7712046FFF75AFFEA0707D5F2
:10A8F000636B4FF6DF721A80DA6842F02002DA608A
:10A90000626BAB0742BFD36843F08003D360938987
:10A910009BB243F4005393812046BDE8F883064B75
:10A92000984204D13B462A4631460120CEE7002416
:10A93000F2E700BF001001400044004081602FE7B3
:10A9400041712DE72DE9F043634F07EBC00985B056
:10A9500005464FEAC00899F8600705F08FFD0646E6
:10A9600099F8610705F08AFD044699F8620745F0F9
:10A97000F5FF6B1CDBB21EB140F60D12F280337294
:10A980001CB140F60D22E280237204223A213046A7
:10A9900005F034FD204604223A2105F02FFD07EB97
:10A9A0000803D3F85C474D4B9C4261D103F5F23369
:10A9B0001A6A42F400121A621A6A22F400121A6227
:10A9C000474497F86337022B6CD0454F454A032B19
:10A9D00008BF1746A68826F03F0668463604FFF7EC
:10A9E00095FE360C029A404BB2FBF3F398B2064345
:10A9F000A680218821F001010904090C21803B492E
:10AA00008F4251D1374BB2FBF3F2013092B2042A9C
:10AA100080B238BF04222084A28323889BB243F0F3
:10AA200001032380238823F4816323F002031B04A2
:10AA30001B0C43F4806323804FF4804323812388DD
:10AA400023F080031B041B0C238023889BB243F05C
:10AA500001032380264B03EB4513012283F8C9220F
:10AA6000002283F8C85283F8CA2205B0BDE8F083FB
:10AA7000204B9C4209D103F5F0331A6A42F480025C
:10AA80001A621A6A22F4800299E71B4B9C4297D102
:10AA900003F5EE331A6A42F400021A621A6A22F4CB
:10AAA00000028CE7114F95E707EB4707B2FBF7F27F
:10AAB00091B2C2F30B020AB941F0010141F4004224
:10AAC0004FF496714B434FF47A71B3FBF1F30133BA
:10AAD0009BB22384A0E700BF000000200054004088
:10AAE00000350C00400D030040420F00A08601001D
:10AAF0009827002000580040005C00402DE9F047F6
:10AB0000B74D460105EB401907F0C8FB99F9C8227B
:10AB1000B44B8846D10003EBC2020746D2F85C472B
:10AB200099F8CA22013A142A00F28380DFE812F071
:10AB3000790089009F00B700C200CC00D500EA0070
:10AB4000F5000A01150164017D01A3010602170247
:10AB5000290232024302670215005F184FF0090A0A
:10AB600097F8600705F08AFC044697F8610705F03E
:10AB700085FCB5F8283301339BB207462046A5F87B
:10AB8000283305F008FC384605F005FC1121204665
:10AB900005F00BFC1121384605F007FC4FF0650865
:10ABA00003E00520002107F0A7FB204605F0E2FBAB
:10ABB00010B9B8F10108F4D1204605F0F1FB0021ED
:10ABC000052007F099FB204605F0E5FB0520002154
:10ABD00007F092FBBAF1010AE0D1204605F0E0FB54
:10ABE0000021052007F088FB384605F0D9FB00213D
:10ABF000052007F081FB204605F0CDFB0520002154
:10AC000007F07AFB384605F0C6FBAB1993F9C8028A
:10AC1000431C01D0FFF796FEAB19002283F8CA222D
:10AC200007E0238813F4007340F02381AA1982F807
:10AC3000CA32AB1993F8CA32002B7FF465AFBDE876
:10AC4000F087238823F400631B041B0C23802388D4
:10AC50009BB243F48063238023889BB243F48073C8
:10AC60002380AB19C3E9B478032283F8CA225E4972
:10AC70002046FDF7AAFAAB19002855D093F8DA223E
:10AC80005AB993F8DB22FF2A04D193F8D8220AB1EB
:10AC90000A22C3E7AB190422C0E70F22BEE7AB19B3
:10ACA00093F8D92202F0FE022282C3E9B478052289
:10ACB00083F8CA224D492046FDF787FA002800F0A4
:10ACC0007081AB190622A9E7AB1993F8DB22228227
:10ACD000C3E9B478072283F8CA2245492046FDF724
:10ACE00074FA002800F05D81AB19D3F8DC223AB980
:10ACF000228892B242F400722280C3E9B4780EE155
:10AD000008228BE723889BB243F480732380AB191E
:10AD1000C3E9B478092283F8CA2233492046FDF7F3
:10AD200054FAAB190028B3D1D3E9B40142F210723E
:10AD3000381A68EB0101904271F10002FFF479AF1B
:10AD400015226BE7AB1993F8D92242F00102228257
:10AD5000C3E9B4780B2283F8CA2226492046FDF7BE
:10AD600034FA002800F01D81AA19D2F8DC32012B38
:10AD70001AD1238823F480631B041B0C2380EFF378
:10AD80001181102383F31288238B23889BB243F411
:10AD900000732380CBB283F311880C2382F8CA326C
:10ADA000AB19C3E9B47844E7022B15D123889BB2D1
:10ADB00043F400632380EFF31181102383F312889F
:10ADC000238B238823F480631B041B0C2380CBB2CA
:10ADD00083F311880D23E1E7238B0E23DEE700BF09
:10ADE00098270020000000200100030082000700D7
:10ADF000840007000200030086492046FDF7F0F9B1
:10AE0000AB19002890D0D3F8E022511CC3F8E0120F
:10AE1000218A1170D3F8DC22013AC3F8DC22012226
:10AE2000C3E9B47883F8E422F8E67B492046FDF7CD
:10AE3000D7F9F0B1EFF31182102383F3128823883E
:10AE40009BB243F400732380AB19D2B2D3F8E01263
:10AE5000481CC3F8E002208A087082F31188D3F8F6
:10AE6000E022511CC3F8E012218A11706FF0010238
:10AE7000D3E7AB1958E768492046FDF7B1F9AB199C
:10AE800000283FF451AFD3F8DC22032A03F53471D4
:10AE900030D1228822F480621204120C2280EFF357
:10AEA0001180102282F31288D3F8E02202F1010C03
:10AEB000C3F8E0C2B4F810C082F800C0228892B291
:10AEC00042F400722280C2B282F31188D3F8E022E9
:10AED000501CC3F8E002208A1070D3F8DC22023A3A
:10AEE000C3F8DC220C2283F8CA22C3F8D072C1F85E
:10AEF00004809EE6022A14D8228822F4806212047A
:10AF0000120C2280228892B242F400722280228A9D
:10AF1000C3F8D072002283F8E422C1F80480012231
:10AF20007CE6D3F8E022501CC3F8E002208A1070BF
:10AF3000D3F8DC22013AC3F8DC22D6E7238823F4D5
:10AF400080631B041B0C2380AB1993F8D92202F0F9
:10AF5000FE022282C3E9B478102283F8CA222F4964
:10AF60002046FDF732F9E0B1AB1993F8DB22FF2A56
:10AF700004D193F8D8220AB113224FE6AB1911225B
:10AF80004CE6AB1993F8DB222282C3E9B478122293
:10AF900083F8CA2222492046FDF717F908B1AB19F8
:10AFA000EAE720492046FDF71BF9AB1900283FF4DA
:10AFB000BBAE142232E6AB1903F53470D3F8DC22B1
:10AFC00082B1D3F8E012013A11F801CBA4F810C015
:10AFD000C3F8DC22C3F8D072C3F8E012C0F80480D2
:10AFE00012221BE6228892B242F4007222800122D1
:10AFF000C3F8D07283F8E422C0F804800EE62388F8
:10B000009BB243F4007323804FF6FF33A382AB1946
:10B0100073E600BF4000001004000010820007002B
:10B02000840007000004001038B5114C04EB4014F4
:10B0300094F8C952D5B1C4F8DC32049BC4F8E032AC
:10B04000002384F8E4320223490084F8DB2284F8E8
:10B05000CA3201229DF8143084F8D91284F8DA2219
:10B0600084F8D832FFF74AFD94F8E452284638BDF8
:10B070009827002038B5114C04EB401494F8C952BD
:10B08000CDB1C4F8DC32049BC4F8E032022349009D
:10B0900084F8DB2284F8CA3200229DF8143084F848
:10B0A000D91284F8DA2284F8E42284F8D832FFF73F
:10B0B00025FD94F8E452284638BD00BF98270020AB
:10B0C000F0B587B0002300930193744B1A6842F4E3
:10B0D00080321A601A6802F400320192009A01323A
:10B0E0000092019A1AB9009AB2F5A04FF2D11B68EA
:10B0F00013F4003318BF01230193019B012B40F08F
:10B10000B180664B66491A6C42F080521A640A6834
:10B1100042F440420A609A689A609A689A609A6813
:10B1200042F480529A605F4A5A601A6842F0807214
:10B130001A601A689201FCD55B4A40F202711160F4
:10B140009A6822F003029A609A6842F002029A60BA
:10B15000524A936803F00C03082BFAD19368534CBE
:10B1600003F00C03042B7FD0082B7FD0504BC4F886
:10B1700048354A4B4F4D9A684F48C2F30312224458
:10B18000002692F87417D4F84825CA40C4F8482518
:10B190004A4AEA605A6F4A4AAA605A6B22F0800211
:10B1A0005A635A6F42F080725A67196B454A0A43D4
:10B1B0001A635A6B5A631A6C42F0875242F4F612C1
:10B1C00042F41F6242F00F021A64596C3E4A0A436D
:10B1D0005A6402A948F2FF73CDE902364FF6FF77B1
:10B1E000FFF752FA00F580600297FFF74DFA00F57D
:10B1F00080600297FFF748FA00F58060FFF744FA95
:10B2000000F58060FFF740FA0846FFF77FFA029BDF
:10B210002E4AB3FBF2F32E4AC2F82C33D5F8FC3099
:10B220002C4A43F08073C5F8FC302B4BC3F8B02F89
:10B230005E601A6842F001021A60D4F848354FF493
:10B240007A72B3FBF2F3013BB3F1807F08D24FF087
:10B25000E0225361F02385F82330072396611361C0
:10B2600007B0F0BD00BFFDE71C4B80E75368516895
:10B2700013F4800F01F03F01536814BF174A0C4AC2
:10B28000B2FBF1F1054A5268C2F30142C3F38813DD
:10B2900001324B435200B3FBF2F368E7003802403F
:10B2A00000700040196C4109003C02400000002081
:10B2B0000024F40000ED00E0000002400003FA0565
:10B2C000000000081F9067003357070040420F003E
:10B2D0009827002055CEACC5001000E040787D01D5
:10B2E00082B000230193054B0193019B03EB800087
:10B2F0000190019B196002B0704700BF50280040C8
:10B3000082B000230193054B0193019B03EB800066
:10B310000190019B186802B0704700BF50280040A0
:10B3200010B51C2005F0AAF81121044605F03DF8DF
:10B33000204605F035F8C82006F0EFFF2046BDE8AE
:10B34000104005F028B8436D064A1A61C278012AF8
:10B3500006D100F2CC5058611A684FF080221A6072
:10B36000704700BF1800086038B5044600296FD147
:10B3700090F81131022B2AD1D0F83821D0F82411BD
:10B380008A4232D9C378012B04BFD0F828315B1828
:10B39000A2EB010208BFC0F828314FF48071D0F849
:10B3A0002831C0F83821002592B2A0F81C11C0F84D
:10B3B0002C31C0F83451C0F8302100F58E7147F0BF
:10B3C0002DFA2B462A462946204647F03DFB94F8A5
:10B3D0001631012B07D1244A2369D2F8FC215A6087
:10B3E000002384F81631002038BDD0F83C31B3FB7F
:10B3F000F1F501FB1535A5B9994212D8D0F84021D5
:10B4000093420ED24FF48073C0E94A55C0E94C55BF
:10B41000A0F81C3100F58E7147F000FAC4F84051D5
:10B42000CFE7D4F8E435DB682BB194F81221032A76
:10B4300001D120469847052384F811310023204686
:10B440001A46194647F000FB2046FFF77CFFBEE78F
:10B45000D0F8E4355B69002BC5D090F81221032A9F
:10B46000C1D19847BFE700BF9827002070477047B9
:10B47000704710B5114C94F83A33CBB14FF0E0223D
:10B48000D2F8103D23F00603C2F8103DFEF776FB1C
:10B4900094F83A3363B1D4F840339B68DB0707D59F
:10B4A000D4F83C24136823F0030161F3070313600D
:10B4B000034B4FF480225A6110BD00BF9827002033
:10B4C000003C01402DE9F04F974CD4F83C335A69C9
:10B4D000D0078DB000F1A5825A699B691340019392
:10B4E00000F09F82C3F307430293019B190311D518
:10B4F000D4F84033DFF83C929E69DB6904F54C7B5D
:10B500001E40360C04F561774FF00008DA46002E35
:10B5100040F01681029B5A070FD5D4F84033834E72
:10B520009F69DB691F40BFB2A6F118054FF0000903
:10B53000A6F55278002F40F04881019B9DF80470D9
:10B54000980741BF784BD3F83C3302225A61019BE4
:10B55000002B1BDA744D95F83A333BB1D5F83C24F7
:10B56000136823F0030161F307031360D5F8402348
:10B570006F48536823F0010353606E4BD3F89C3738
:10B580009847D5F83C334FF000425A61019B1905AA
:10B59000C3F3072631D5644D00238DF81F3095F88D
:10B5A00042348DF81F30634B05F54C70D3F8983753
:10B5B0009847D5F83C23D5F840334FF400619B6899
:10B5C000516195F83A23C2B1DA0716D595F845349A
:10B5D000012B12D19DF81F30032B0ED1D5F83C342E
:10B5E0001A6842F001021A601A6842F003021A60F7
:10B5F000514A136943F0060313613B070AD54A4DCC
:10B600004C4B05F54C70D3F890379847D5F83C3340
:10B6100008225A61FD0615D5434BD3F83C038269D5
:10B6200022F010028261026AC2F34341022902F051
:10B630000F0500F08781062900F0AB81836943F094
:10B6400010038361F00637D5374DD5F84023D5F880
:10B650003C035368002723F001035360394647F049
:10B6600053FCB84695F831033B4605F55275FF216A
:10B670008342C0F09C81D4F840332D484FF0FF3214
:10B680009A614FF00112DA610B2262F3070762F34D
:10B6900007085F61C3F810801A686FF30A121A6016
:10B6A000FFF751FED4F83C3321484FF480525A61E1
:10B6B000204BD3F894379847B10640F194811A4C47
:10B6C000D4F84033D4F8480399680268C1F34101C3
:10B6D000022906BF032161F30A026FF30A02026026
:10B6E0005A6842F480725A6008A8FFF70FF8D4F83D
:10B6F0003C13D4F84003CB68099A6FF38D23CB60D9
:10B7000085680E48C5F34105284490F80C010328CC
:10B7100040F05481002284F832234FF40072A4F8E0
:10B720003423092259E100BF98270020E02A002095
:10B73000C82A00200000002000ED00E0F490050879
:10B74000F2073BD55FFA88F104EB8103D3F8843329
:10B750009D68D4F840335B691D40EB0720D594F811
:10B7600033033B680125A8429D6007D11869DBF8C7
:10B770007C33C0F312001B1ACBF88C33D9F8843712
:10B780005046984794F83333012B09D1B8F1000F94
:10B7900006D194F84134052B02D15046FFF7D3FD72
:10B7A000A80742BF3B6802259D60290706D5D9F846
:10B7B0008C37504698473B6808229A6008F1010888
:10B7C000760804370BF1280BA1E6FB0777D5D8F8EC
:10B7D00040335FFA89FA1969586B08EB8A0220FA3C
:10B7E0000AFBD2F848234FEACB1B92685FFA8BFB27
:10B7F0004BEA010B0BEA020B1BF0010F1ED05A6B38
:10B80000A8484FF0010B0BFA09F122EA01025A6332
:10B810003368C3F808B0A44B5146D3F8883798472B
:10B8200098F833335B4509D1B9F1000F06D198F888
:10B830004134042B02D19B48FFF785FD1BF0080F14
:10B840001EBF33684FF0080BC3F808B01BF0100F91
:10B850001EBF33684FF0100BC3F808B01BF0400F49
:10B860001EBF33684FF0400BC3F808B01BF0020F47
:10B870001EBF33684FF0020BC3F808B01BF0800FF7
:10B880001DD0D5E94C329B1AD5F82421D6F800E01A
:10B8900098F833B3DEF81800934228BF13460333F9
:10B8A000D8F8402303920AF1320A9B0808EB8A0A6F
:10B8B00080B2984203D9D5E94C03984205D809F1E2
:10B8C00001097F080436283534E6C01AD5F824313A
:10B8D000984228BF1846C31C9B08BBF1000F1CD020
:10B8E000D5F82811D5F834210144C5F82811D5F828
:10B8F000301102448A42DEF81800C5F83421D7D14D
:10B90000039A95F81C11526B4FF0010C0CFA01F1DF
:10B9100022EA010203994A63CAE7D5F82821049272
:10B9200082B2DAF83813033292108C4605925946E7
:10B93000059A8A42D4D0049A52F82120CCF80020EB
:10B940000131F5E747F6F07111423FF477AE282157
:10B9500001FB0531C2F30A12D71CD3F800E4D1F879
:10B96000B0C6BF1000218F420DD1282101FB053345
:10B97000D3F8B0161144C3F8B016D3F8BC160A4475
:10B98000C3F8BC265AE6DEF800804CF8218001316D
:10B99000E9E7D3F800140F68C3F8FC780968C3F826
:10B9A0000019282101FB0533C2F30A12E5E755F817
:10B9B000042B9160AA6B0133916059E6012084F851
:10B9C00032034020A4F83403A0F56400374CA0F5FE
:10B9D00062401044A04227D80E2262F38D23CB6030
:10B9E0004FF400534B61029BDA060BD5304C2E4BC3
:10B9F00004F54C70D3F8A0379847D4F83C334FF493
:10BA000080125A61029B9B060BD5294C264B04F5EC
:10BA10004C70D3F8A4379847D4F83C334FF4001255
:10BA20005A610DB0BDE8F08F224CA2F57400A0F56C
:10BA30001050A04201D80D22CFE71F481F4C1044E0
:10BA4000A04201D20C22C8E71D4CA2F18C70A0F5D7
:10BA50004340A04201D80B22BFE71A481A4C1044B9
:10BA6000A04201D20A22B8E71848194C1044A0425B
:10BA7000FFF457AE174CA2F1B770A0F55850A04292
:10BA800001D20822A9E71448144C1044A04201D264
:10BA90000722A2E712481044124A904234BF0622FD
:10BAA00005229AE7C82A0020000000203F420F002C
:10BAB00098270020DFC810002013FBFE20D61300BB
:10BAC000FF69180000D3CEFE40771B00C05BB3FEB9
:10BAD000C091210040AC2700C01D6AFE40E1330048
:10BAE000803C36FEE09C410070B5124D124BC5F80B
:10BAF000243940F20112002385F86932A0F844216C
:10BB0000C0F85C3105F624120D23C0E95422044626
:10BB100085F83019C0F8583100F5A27146F0FBFEE7
:10BB200005F5127220461F23BDE87040012146F042
:10BB30008BBF00BF982700205553425310B5074BC9
:10BB400093F85512044646F09DFF002804DA20467B
:10BB50000121BDE81040C7E710BD00BF98270020B5
:10BB6000F8B50B7813F0600506460C4638D0202D4A
:10BB700074D14A78FE2A05D0FF2A1CD046F0CCFDAD
:10BB800002252BE04D88A5B9CF88012F11D11A06C7
:10BB90000FD5334CD4F874329B699847C0B284F8FF
:10BBA000340930B13A4604F63411304646F088FE86
:10BBB00014E03046E2E74A88002AFAD1CD88002D09
:10BBC000F7D11B06F5D4264A012182F8695282F882
:10BBD00068121F2302F5127246F036FF2846F8BDA0
:10BBE0004B780A2B24D00B2B25D0012BF6D194F9BE
:10BBF00004308988C068002B22DA01F07F0147F009
:10BC000083F92179164F304646F094FD02232179BD
:10BC10004022304646F0B7FD97F86832022B12D129
:10BC20008121304646F046FD002387F86832D5E78B
:10BC30000C490122BAE70A4B4A8883F83529CDE737
:10BC400047F04CF9DDE794F90420002AC6DA012B0D
:10BC5000C4D001213046FFF747FFBFE70025BDE70D
:10BC600098270020CD30002008B5084B93F86932A2
:10BC7000022B07D0033B012B02D80021FFF734FF32
:10BC8000002008BDFFF75AFFFAE700BF9827002001
:10BC900070B52F4C94F8696205461EB1012E54D040
:10BCA000002070BDD4F84C32C4F82839D4F8503292
:10BCB000C4F82C39B0F8B4331F2B0DD1D4F8482276
:10BCC000244B9A4208D194F85512012904D894F8CB
:10BCD0005632013B0F2B0AD92021052044F0BEFC2F
:10BCE000022384F868322846FDF72EFBD8E746F099
:10BCF000C9FE0028F7DB94F86932013B022BCFD94B
:10BD0000B4F83619E9B1D4F8503284F83069994260
:10BD100028BF1946D4F82C395B1AC4F82C390423EF
:10BD200084F8693240F20113A5F844310A4BC5E9A1
:10BD30005616C5E9543305F5A271284646F0EBFDC9
:10BD4000AEE72846FFF7D0FEAAE7FFF7F7FEA7E722
:10BD50009827002055534243A46400204A09012338
:10BD600001F01F0103FA01F150F82230194214BF0B
:10BD70000120002070474A09012301F01F0103FA46
:10BD800001F150F822300B4340F8223070474A0945
:10BD9000012301F01F0103FA01F150F8223023EAD8
:10BDA000010340F82230704730B54D09024400EBE2
:10BDB0008504A2424FF0FF3323D901F01F018B40CD
:10BDC00050F825100B4093FAA3F3B3FA83F3DBB2D8
:10BDD000202B02D003EB451030BD211D91420C46B3
:10BDE00002D34FF0FF30F7E72368043193FAA3F34F
:10BDF000B3FA83F3DBB2202BF0D0201A03EBC000A0
:10BE0000EAE71846E8E780EA0120082341F2210228
:10BE100010F4004F4FEA400018BF5040013B80B281
:10BE2000F6D1704738B50C468D18AC4200D138BDFC
:10BE300014F8011BFFF7E7FFF7E74840082310F06D
:10BE4000800F4FEA400018BF80F0D500013BC0B220
:10BE5000F5D1704710B50A440C46944200D110BD8C
:10BE600014F8011BFFF7E9FFF7E738B50A46056844
:10BE700004460020AA4203D36B1C2360287038BDFF
:10BE800012F8011BFFF7D9FFF4E7DFED0A7AC0EDE6
:10BE9000020A20EE270AB7EE007AC7EE007A0023E6
:10BEA0000360C0ED017A70EEA77A80EEA77A80ED8C
:10BEB000037A7047DB0FC94090ED017AD0ED007A2C
:10BEC000C0ED020A30EE877AC0EE876A30EE677AFC
:10BED000E6EE877AB0EE670AC0ED007A704701237C
:10BEE00003700023C3648364036503644364436590
:10BEF000836283657047DFED157A80ED010AF4EE09
:10BF0000E70AF1EE10FAC0ED020A80ED031AC0ED67
:10BF1000051A18DDB4EEE70AF1EE10FA10DD81EE35
:10BF2000007AC0EE207AF0EE006A77EE877A86EE2D
:10BF3000A77A80ED047A80ED0F2AC0ED0E2ACEE7B5
:10BF400000230361F7E700238360FAE7BD378635F6
:10BF5000FDEEC07A17EE903A2033402B43D8DFED48
:10BF6000237A9FED237AB4EEE70AF1EE10FA28DC8B
:10BF7000DFED207A9FED1E7AB4EEE70AF1EE10FABB
:10BF800022D4DFED1D7AB4EEE70AF1EE10FA1EDDE1
:10BF900030EE670A37EEC00A60EE007ADFED176A0E
:10BFA0009FED177AA7EEA67ADFED166AE7EE876AAD
:10BFB0009FED157AA7EEA67A20EE276AA6EE070A6D
:10BFC000704730EE470ACEE730EE070AD4E79FED20
:10BFD0000F7AB4EEC70AF1EE10FA44BF30EE270A2A
:10BFE00037EE400AD8E79FED0A0A7047DB0F494059
:10BFF000DB0FC940DB0F49C0DB0FC93F9A7C2E36EF
:10C00000FAAF4FB93587083CA4AA2ABEDB0FC9BFD7
:10C0100000000000DFED027A30EE270A98E700BF4B
:10C02000DB0FC93F38B51D46304BB3FBF2F39942E5
:10C03000B0EE405AF7EE005A4FF000044FD207EE30
:10C04000901A9FED2B7ADFED2B6AF8EE677A67EE98
:10C05000877A07EE102AB8EE477A27EE267AC5EEE1
:10C06000876A87EEA64AB0EE440AFFF771FFF0EE4A
:10C07000404AB0EE440AFFF7CDFF35EE055A012DD8
:10C0800084EE854AF0EE407A1CBF35EEE76AF6EEA4
:10C09000006AB8EE000A34EE257A12BF66EE266A10
:10C0A00027EE806AF0EE656A86EE875AC6EE076A6A
:10C0B00067EE807A75EEC45AC0ED016AC7EE876AF2
:10C0C000C5EE877A80ED005A80ED025AC0ED036A12
:10C0D000C0ED047A846144610462C46138BDC0ED7E
:10C0E000005A44608460C4600461F3E720A1070043
:10C0F000DB0FC940BD3786359FED010A002391E76C
:10C10000F304353FB5EE400AF1EE10FA10B5F0EE4B
:10C11000406A04464FF00003084627D007EE902AF5
:10C12000F8EE670ADFED1A7A60EEA70A4CB9FFF75E
:10C13000ACFEFCEEE66ABDE8104016EE903A99B20D
:10C14000DAE7022C13D0032CF3D19FED120A0B6017
:10C1500066EE806AB7EE007AC7EE267A4B608B6097
:10C1600077EEA07A80EEA77A81ED037A10BD9FED7D
:10C170000A7A0B6020EE077AB7EE006AC6EE077AFD
:10C180004B6077EEA07A80EEA77A81ED027AD0E755
:10C19000BD378635F82F4541D2331C412DE9F0419A
:10C1A000FCEEC07A13460A4617EE901AD0F81480B7
:10C1B0008769C669056AB0EE600A89B2FFF732FF87
:10C1C000C0F814808761C6610562BDE8F081F0EEB9
:10C1D000E06AB0EEC07AF4EEC76AF1EE10FAD4BFAE
:10C1E000B0EE476AB0EE666AB5EE406AF1EE10FA5C
:10C1F000F0EE405A46D0F4EEC76AF1EE10FA54BFA2
:10C20000B0EE475AB0EE665AC5EE067A9FED1F6A49
:10C210009FED1F5ADFED1F4AA7EE865A9FED1E6A5B
:10C22000A5EE276A9FED1D5AA6EE275A9FED1C6AC0
:10C23000A5EE276A9FED1B5AE7EE854AB7EE005A36
:10C24000A4EEA75AF1EE467A87EE850AF4EEC76AA5
:10C25000F1EE10FA48BFDFED147AF5EEC00A48BFE0
:10C2600037EEC00AF1EE10FA48BFDFED107AF5EEB6
:10C27000C05A48BF37EEC00AF1EE10FA48BFB1EE1F
:10C28000400A7047DFED0A7AC0E700BF39094E3D2A
:10C29000E3B59EBE69A2163E88FA16BE45FE7FBF74
:10C2A000A7DFA8B499FB243FDB0FC93FDB0F494050
:10C2B0000000000044F25063984203DDA0F50C40FA
:10C2C000A0387047034B9842BCBF00F50C40A0302B
:10C2D000704700BFB0B9FFFF48F69F43984203DDA7
:10C2E000A0F50C40A03870470028BCBF00F50C40FA
:10C2F000A030704791ED005A08B5B0EE450AFFF73F
:10C3000089FEF0EE405AB0EE450AFFF721FE91EDAE
:10C31000015AF0EE404AB0EE450AFFF77BFEF0EE20
:10C32000403AB0EE450AFFF713FE91ED023AB0EE47
:10C33000405AB0EE430AFFF76DFEB0EE404AB0EE51
:10C34000430AFFF705FE25EE806A63EEC07A24EE0D
:10C35000847AC0ED017AF0EE467AE5EE077A25EEB2
:10C36000843A64EE806AC0ED037AF0EE437AE5EE3B
:10C37000667AA5EE067AE5EE436A23EE844A64EE19
:10C38000E34A65EEA35A80ED004A80ED025AC0ED03
:10C39000047AC0ED054AC0ED066A80ED077AC0ED6B
:10C3A000085A08BD034600F1400100221A615A6193
:10C3B0009A61DA6110339942F8D1102200214BF0D2
:10C3C000C8BDD1ED007A90ED066AD0ED095AB8EEFD
:10C3D000E77AD0ED047AE7EE077AB7EE005AC0EDBF
:10C3E000047AD1ED017AF8EEE76AD0ED057AE7EE4E
:10C3F000267AC0ED057AD1ED027AF8EEE77AA7EE5B
:10C40000276A80ED066A90ED076A36EE076A80EDCE
:10C41000076A90ED086AA7EE266A80ED086A26EEA4
:10C42000A66A75EE865AA7EE076AC0ED095AD0EDE6
:10C430000A5AE6EEA75AA7EEA76AC0ED0A5AD0ED4F
:10C440000B5A75EEA65AC0ED0B5AD0ED0C5AE7EE1A
:10C45000275AC0ED0C5AD0ED0D5AE6EEA75AC0EDA2
:10C460000D5AD0ED0E5AE7EEA75AC0ED0E5AD0ED98
:10C470000F5A75EEA75AC0ED0F5AD0ED105A75EE4F
:10C48000875AC0ED105AD0ED115A75EEA65AC0ED7C
:10C49000115AD0ED125A75EEA75AC0ED125AD0EDCE
:10C4A000135A75EE855AC0ED135AD0ED005AE7EED7
:10C4B000065A90ED017AC0ED005AA6EE867A80ED1C
:10C4C000017A90ED027AA7EE867AD0ED037A80EDBC
:10C4D000027A37EE866A80ED036A70472DE9F043F1
:10C4E000034685B000F11007054600261C46AC4601
:10C4F00012E0F8EC016A1EED047AD4ED007AE6EE63
:10C50000C77AC4ED007A98450EF1100EF1D10434CB
:10C51000BC420CF1040C03D0A7F11008E646F2E788
:10C5200001361C46B646BEF1040F1FD000EB0E1CB0
:10C53000A84604F1100909E0FCEC016A18ED047A40
:10C54000D4ED047AE6EEC77AC4ED047ACC4508F15E
:10C550001008F1D1D4ED046A93ED007AC6EE877A23
:10C560000EF1010EC4ED047A6446DCE7042E03F1FB
:10C57000140305F1040507F11007B7D10023009358
:10C580000193029303936C460023142752F8045B33
:10C5900044F8045B07FB030C00EB03156E4665458E
:10C5A0001FD10133042BF1D104AD103100F1400251
:10C5B00055F8044D0E4600EB031741F8044D1446A0
:10C5C000A742D1ED007A17D152ED016A87EEA67A23
:10C5D000013BA2F1140281ED007AE9D105B0BDE87A
:10C5E000F083B6EC017A54ED017AF5EC016AE6EEDF
:10C5F000C77A44ED017AD2E7F4EC016AB6EC017A2D
:10C60000E6EEC77AC1ED007ADAE79FED0C7A00F129
:10C610000C03F0EC017AF4EE677AF1EE10FA06D72B
:10C62000F0EEE77AF4EE477AF1EE10FA03DC984286
:10C63000EFD1012070470020704700BFFFFF7F7FD0
:10C640001FB50C46024669461030FFF747FFDDED87
:10C65000007AB6EE007A67EE877A2046C4ED007A5B
:10C66000DDED017A67EE877AC4ED017ADDED027ABD
:10C6700067EE877AC4ED027AFFF7C7FF04B010BDFA
:10C6800008B547F0D9FD00EE100AB5EEC00AF1EE8C
:10C6900010FA06DB48F054FCB4EE400AF1EE10FA52
:10C6A00001D79FED010A08BD0000000008B5F7EEB4
:10C6B000007A2DED028BF0EEC08A77EEE87AB0EECC
:10C6C000408A17EE900A47F0B9F9FFF7D9FF9FEDBE
:10C6D0000E7ADFED0E7AE8EE877A9FED0D7AA7EEFF
:10C6E000A87ADFED0C7AE7EE287AB5EEC08ABDECC9
:10C6F000028BF1EE10FA20EE270A44BFDFED067A36
:10C7000037EEC00A08BD00BF306E99BC2716983DB1
:10C71000843459BEA40DC93FDB0F494008B50369F5
:10C72000012BC3BF03F1FF3307EE903AD0ED036A4C
:10C730009FED067AC4BFF8EEE77A86EEA77A17EE89
:10C74000100A47F07BF9BDE8084099E700000000B7
:10C7500038B50378012B04462CD103691D4D23B94C
:10C76000426812B9D5F8D42A4260D4ED067A77EE41
:10C77000807A01332361C4ED067A04F11C00FBF7D3
:10C78000F7FF6268D5F8D43A9B1AA268934211D990
:10C79000FFF7C4FFD4ED057AB4EEE70AF1EE10FA24
:10C7A0000CDD237B3BB9D5F8D42A626000222361DB
:10C7B000A261E36238BD03232370FBE7D4ED047A62
:10C7C000D4ED066AF8EE677A022386EEA77A84ED46
:10C7D000067AF1E7A016002038B500F11C020446E5
:10C7E00004F16405104650ED017AB1EC010A77EED0
:10C7F000807A40ED017AFBF7BBFF1830A842F2D1F6
:10C800002369294D616801332361D5F8D43A5B1A55
:10C81000A1688B422CD91046FFF780FFD4ED057A32
:10C82000B4EEE70AF1EE10FA15DC04F13400FFF77C
:10C8300075FFD4ED057AB4EEE70AF1EE10FA0ADCE2
:10C8400004F14C00FFF76AFFD4ED057AB4EEE70A75
:10C85000F1EE10FA10DD237B5BB9D5F8D42A6260C3
:10C8600000222361A261E36222636364A264E36540
:10C8700038BD03232370FBE7D4ED047AD4ED066AB8
:10C88000F8EE677A022386EEA77AD4ED0C6A84ED7F
:10C89000067A86EEA77AD4ED126A84ED0C7A86EEDB
:10C8A000A77A84ED127AE5E7A016002060EEA00AD0
:10C8B00008B5E0EE000A10EE900A47F0BFF8BDE8B8
:10C8C0000840DDE660EEA00A08B5E0EE000AE1EE01
:10C8D000010A10EE900A47F0B1F8BDE80840CFE633
:10C8E0002DE9F74F90469DF83020002A14BF4FF0F5
:10C8F00030094FF020090D9A1C1E05460F46BABF9D
:10C9000064420123002312F8011B01B12CB9A24695
:10C9100063B100240D9EA41B12E0013CF3E7BD426D
:10C9200004D2494628460193C047019BBAF1010A47
:10C93000F5D2EFE7BD4203D228460193C047019BE1
:10C9400006EB040B16F8011B0029F3D133B1544652
:10C95000002C07DCBAF1000FA8BFD344584603B03F
:10C96000BDE8F08FBD4202D249462846C047013C8F
:10C97000EEE70FB437B50C4D06ABD5F8C81A53F82F
:10C98000042BD5F8C40A019346F029FD0446D5F8D6
:10C99000780205F0DAFB0028F9D0204603B0BDE8A4
:10C9A000304004B0704700BF982700200EB403B594
:10C9B00003AB084953F8042BCDE9003001A846F039
:10C9C0000EFD019B00221A7002B05DF804EB03B06B
:10C9D000704700BFBF8700080CB430B52C4CD4F8AA
:10C9E000CC3AA5B01BB9D4F8D03A002B3AD094F881
:10C9F000D43A994206D9012303FA00F0D4F8D83A80
:10CA000018422FD0234BD3F8D41A4FF47A7304A8CA
:10CA1000B1FBF3F203FB12131F49FFF7C7FF04AB8F
:10CA20000344289A1D490393054629AB03A80293A2
:10CA300046F0D5FC039B591C03910A211970039BF6
:10CA40000246591CD4F8CC0A03910021197090B108
:10CA500003681B6A03B19847D4F8CC5A04AC14F8A5
:10CA6000011B21B925B0BDE8304002B0704728460F
:10CA700005F006FBF3E7D4F8D03A002BF2D0022100
:10CA80002A4400910A44FD2004A926F0B7F9E9E7F9
:10CA900098270020A0160020522E0608678700085D
:10CAA00010B54FF4004086B023F092FA044690B3DC
:10CAB0004FF4004123F0EEFB02281AD1226848F21D
:10CAC00001039A4227D14FF4004043F0ABF910B371
:10CAD0001F4BD3F8DC2A82421FD0D3F8B82B9042E8
:10CAE00030D0D3F8942C90422FD00022C3F8D02A13
:10CAF00011E00023022294F90400CDE901234FF450
:10CB0000612200924FF400411A4623F013FC104BAF
:10CB1000C3F8CC0A28B906B010BD03F6DC22C3F86E
:10CB2000D02A0C4B04930C4B03930C4B02930C4BED
:10CB300001930C4B00930C4A0C4B02210020FFF791
:10CB40004BFFE8E703F6B832E9E703F69442E6E77D
:10CB5000982700205E2E0608672E0608702E06080D
:10CB60007C2E0608A42D06086C3C0608B02D06088D
:10CB7000184A38B5D2F8704D033004EB9003B3F582
:10CB8000007F19D802F67455C2F8703D124A02EBC4
:10CB9000810120F00300D1F87C24C3F50073104418
:10CBA000C1F87C040D4A9B000421002005EB84049D
:10CBB000FFF712FF204638BD0021094A0846FFF75B
:10CBC0000BFF084AD2F8983043F00073C2F898304F
:10CBD0000024EFE79827002090380020822E0608D6
:10CBE000A52E0608C03401202DE9F047064600684E
:10CBF000FDF7A1F80D28054608DD1F4A0021052094
:10CC0000FFF7EAFE00242046BDE8F0871B4F07EB44
:10CC100080094FEA8008D9F88CA2BAF1000F1CD124
:10CC200009216420FFF7A4FF0446C9F88C0228B943
:10CC30000146134A0520FFF7CFFEE4E76422514680
:10CC40004BF087F90F48D9F88C322DB200EBC505AF
:10CC5000C3E90053DB615B63DB6447447179D7F858
:10CC60008C42182000FB014300221C46C3E903222A
:10CC70009E601A750434C6E7B32E06089827002074
:10CC8000D82E06084C91050803685A1C02601970DA
:10CC90000368090A5A1C02601970704703685A1C1D
:10CCA0000260197003685A1C02600A0A1A7003684D
:10CCB0005A1C02600A0C1A700368090E5A1C0260A2
:10CCC0001970704703685A1C02600A0A1A700368D8
:10CCD0005A1C02601970704738B504460068154642
:10CCE0004AF0FEFE23682B44236038BD03685A1CBB
:10CCF00002601878704703685A1C02601A4612F8DE
:10CD0000021B0260587841EA0020704710B50268A3
:10CD10001146531C036011F8024B0160D31C51787B
:10CD2000036093781B0443EA0123111D0160D0784E
:10CD3000234343EA006010BDD1E900329A4206D095
:10CD40005A1C0A6008B11B7803700120704700204C
:10CD50007047D1E900239B1A012B10B50446084601
:10CD600004DDFFF7C8FF2080012010BD0020FCE794
:10CD700030B50A440446914201D1002011E014F874
:10CD8000013BA3F14100192811F8010BA0F1410565
:10CD900098BF2033192D98BF20301B1A02D10028CC
:10CDA000E9D130BD1846FCE710B50288C378A2F57A
:10CDB000FA62910840F2B554013B04FB01338178DB
:10CDC0000C24013902F0030204FB02120C4984799D
:10CDD00001EB42021821B2F81E211344027901FB33
:10CDE0000322437900893C2101FB0233054A224496
:10CDF00001FB03224FF47A730021C2FB030110BD33
:10CE0000F490050880436D382DE9F04190461F46A7
:10CE100005464FF47A7200234046394647F06AFBD4
:10CE2000284B3C21034493FBF1F201FB1233AB711D
:10CE300092FBF1F301FB13226A7140F2B551182203
:10CE400093FBF2F402FB143394FBF1F201FB124466
:10CE5000B4F5896F2B714FEA82032EDA40F2DA22A1
:10CE600094422CDCB4F5B77FB4BF00210121164AEF
:10CE7000182000FB01220B2632F81600A04201DD2B
:10CE8000013EF9D103F5FA630B442B80731CAB70A0
:10CE90000C2303FB01660D4B03EB46060134B6F889
:10CEA0001E31E41AEC704FF47A7200234046394682
:10CEB00047F020FB2A81BDE8F0810321D7E702215A
:10CEC000D5E700BF80BC92C712920508F490050810
:10CED000F0B5274D06460F460FCD8DB06C460FC4FA
:10CEE0000FCD0FC495E80F0084E80F0016F0030380
:10CEF0003AD1642196FBF1F201FB126242B94FF480
:10CF0000C87296FBF2F302FB1363003B18BF0123C8
:10CF1000721EC3F11D03002A019340F26D131046E7
:10CF200006FB03F3B8BFB01C03EBA0006FF0630374
:10CF300092FBF3F318444FF4C87392FBF3F21044DE
:10CF40000630694600240725013F51F8042BA7420B
:10CF500002EB000393FBF5F0C0EBC000A3EB000075
:10CF600004D1101A0DB0F0BD0123D1E70134ECE774
:10CF700074920508084B53E9021251EA020309D0E2
:10CF8000064BD3F8D43A5B1842F10002C0E90032F4
:10CF90000120704700207047A03D0020A01600200F
:10CFA00037B505466846FFF7E5FF044638B1DDE9C9
:10CFB00000232846FFF728FF204603B030BD40F28B
:10CFC000011328806B80A880A8712881F4E7F0B550
:10CFD0000124B0FBF4F58D4203D200261CB91C706D
:10CFE000F0BD4C43F5E7B0FBF4F5B4FBF1F704FBFF
:10CFF00015002EB9002D03DC8C420CD33C46EDE726
:10D00000092D08DD002A14BF372457242C4403F8C7
:10D01000014B0136F2E73024F8E7A0F13003DAB231
:10D02000092A01D818467047A0F16103052B01D8E1
:10D0300057387047A0F14103052B94BF37384FF0A4
:10D04000FF30704770B50446944208461546B4FB5D
:10D05000F2F602D33046FFF7F5FF05FB1644024B0C
:10D060001B5D00F8013B70BDF22E0608B5EEC00A4C
:10D07000DFED2D7AF1EE10FACCBF30EE270A30EE5C
:10D08000670ADFED2A7A20EE270A30B5FDEEC07A76
:10D0900087B017EE904A054684EAE470002303A99E
:10D0A000A0EBE470CDE90033029343F079FC002C4F
:10D0B000ACBF20232D2303A88DF8003046F052FB8F
:10D0C000012822D130238DF801308DF802308DF8FF
:10D0D000033003A968464AF044FF684646F042FB25
:10D0E0000338C4B22246694628464AF0F9FC0023B8
:10D0F0002B550F4928464AF034FF0DEB0401284612
:10D100004AF02FFF284607B030BD022805D1302352
:10D110008DF801308DF80230DBE7032804BF30239F
:10D120008DF80130D5E700BF6F12033A00007A4452
:10D130006264060830B50278202A034600F1010037
:10D14000F9D0092AF7D02D2A4BD10346BFEE000AA9
:10D150009FED3C7A1A46F2EE046A134612F8010B70
:10D16000A0F13001CCB2092C41D92E280BD1F2EE1E
:10D17000046A1146B0EE666A0B4611F8012B303A8C
:10D18000D0B209283CD91A7802F0DF02452A53D1DF
:10D190005A782D2A3FD102330120013B00220A2573
:10D1A00013F8011F3039CCB2092C3AD9B2F59A7F65
:10D1B0001346DFED256A28BF4FF49A731A46F7EE3F
:10D1C000007A072A30D8DA086FF0070101FB023332
:10D1D000F2EE046A63BB88B3C7EE276A20EE260A24
:10D1E00030BD2B2A08BF0346B7EE000AB0E707EEB2
:10D1F000901AF8EEE77AE7EE267AB0EE677AACE7B7
:10D2000007EE902AF8EEE77AC7EEA65A66EE866A2F
:10D2100037EE257AB0E72B2A14BF01330233002002
:10D22000BBE705FB0212BBE767EEA67A083AC8E740
:10D2300067EEA67A013BCDE7F7EE007A67EE276A44
:10D24000CCE700BF0000000020BCBE4C70B5034618
:10D2500010F8012B202AFAD0092AF8D02D2A0ABF6B
:10D26000034601254FF0FF35591E00240A2611F808
:10D27000010FFFF7D2FE092802D905FB04F070BDAB
:10D2800006FB0404F3E72DE9F04F2DED028B8FB080
:10D290002FF0A0FB2FF078FB4FF00008DFF8389359
:10D2A0000646444647464546BE4200F3AB80642CE2
:10D2B00040F053816825DFF8F482B94BD8F84C71FF
:10D2C000C3F8007F4C22554308EB050300211846A4
:10D2D0004AF03FFE4C2200214AF03BFEB14A48F89A
:10D2E00005200122C0E90466C0E907778260AE4AE2
:10D2F000826247620534AA4BAC4DD3F8007F7300BD
:10D30000B3F1805F18DA4C2254432B1900211846E0
:10D310004AF01FFE4C2200214AF01BFEA44A2A516B
:10D3200002224271C6F1006601229640C0E90466FD
:10D33000C0E90777826047629E499C484FF4987223
:10D340004AF0CEFB994A042113460139C3E9077715
:10D350005F6203F14C03F8D1AC68002C4DD12B79FE
:10D36000002B4AD02B68002B47D0C5E911118F48FC
:10D370002964E9630F468C46C66C00F14C03002E0D
:10D3800040F02C8102231068002840F057818A4E1B
:10D39000981E8A4BC6F83C3A3E23C6F8403A3F23D3
:10D3A000C6F8443A4023C6F8483AC6F8581AC6F8B0
:10D3B000644AC6F8540A830F8100002800F06B818C
:10D3C00040F2FF128A1843F10003520A42EAC352A4
:10D3D00002F14003C6F84C3A1344C6F8503A03EB46
:10D3E000C003DA0DC6F8383A5B02C6F8303A744B1F
:10D3F000C6F85C5AC6F8605A5A600FB0BDEC028B92
:10D40000BDE8F08F202206A938462FF0A3FA6D4917
:10D41000122206A84AF0ECFD0090002840F08B8014
:10D42000AF421DD068490C20621C00FB0414CA46A0
:10D43000664901922046FFF7B9FA01214AF84C4BA0
:10D44000C9E902155849C9F82810019AD9F81C10E1
:10D45000A7EB050BC9E904BBC9E908111446D1467D
:10D460004F4BD3F8002FC9F81C203D4612220EABBB
:10D47000501C1A44564B12F8201C18F803209142F5
:10D480005CD108F10108B8F1150F59D1202206A985
:10D4900028442FF05FFA002505AA4E4906A84AF055
:10D4A000FEFC05AACDE9025508EE102A0195AA4610
:10D4B000AB4638B30BF1FF32042A04D8DFE802F0A0
:10D4C0000F13171B1F00FFF7C1FE824618EE102A2C
:10D4D000404900200BF1010B4AF0E1FCE9E7FFF7BE
:10D4E000B5FE0190F2E7FFF7B1FE0290EEE7FFF71D
:10D4F000ADFE0390EAE7FFF7A9FE0546E6E7FFF772
:10D50000A5FE0090BAF1000F12D0DDE90123AAF2C6
:10D51000BC7A43EA4210039B40EA4A2A680140EA87
:10D52000C320009B40EA630040EA0A40C9F81C009F
:10D53000642C2ED03D4607F50067B5E64FF0000895
:10D54000202808D12035AE42F2DB024606A9284643
:10D550002FF000FA0020024689E7AF4219D01A4A9C
:10D560001A49A7EB05080C2707FB042701342246BC
:10D570003846FFF71BFA0122C9E902250A4AC9F811
:10D580002820D9F81C20C9F80070C9E90488C9E925
:10D590000822251D002C7FF48EAE0424ABE600BFCC
:10D5A00000000020532F0608219B00082C45002076
:10D5B000602F0608A4920508A01600206D2F06080B
:10D5C000D0200020172F0608A03D00202A2F060893
:10D5D000382F06084E2F06085C4600209E68C3F8C8
:10D5E00040C007F1FF3E7645C3E911CCC3F83CC00B
:10D5F00005D1002F3FF401AF53F80C0C374607F16B
:10D60000010E764508D10679002E3FF4F6AE43644C
:10D61000186477461846AFE6BE427FF4EEAE002EA1
:10D620003FF4EBAED0F840E0DEF83C700137CEF8C6
:10D630003C70C3F840E08364B646EAE7107903F132
:10D64000FF3CA0B11363D36B5B011ABF03F6FF73FA
:10D650001B0B01236344C2E90466C2E90D33D2E91E
:10D660000D03181A0144013301344C328BE617695B
:10D67000136367B107F6FF773F0B50696744576341
:10D6800038B100F6FF70000B60449063E7E70127B4
:10D69000F3E70120F8E701229AE610B5002380287D
:10D6A00004D893420AD2C854581C10BD934205D0E6
:10D6B00060F07F04CC54C0090133F0E74FF0FF3035
:10D6C000F3E770B51249134C134E01220020FEF708
:10D6D000A9FB228862B1A31DB34217D2A518B54297
:10D6E00014D2052A12D92146FEF79CFB2C46F0E7FE
:10D6F00021460222FEF796FB63880849084AC31AAE
:10D70000641A5842A2F8C049584170BD0020FCE795
:10D71000004000080140000800800008FC3F0008AD
:10D72000903800202DE9F04F794BDFF8F4818FB06D
:10D73000A3EB0802CDE901234FF0030910220021D9
